:020000040800F2
:1000000080220020A101000815370008D93100081E
:10001000113700088D0D000821390008000000008C
:100020000000000000000000000000007137000820
:10003000910D00080000000021370008B1370008CA
:10004000BB010008BB010008BB010008BB010008A0
:10005000BB010008BB010008BB010008BB01000890
:10006000BB010008BB010008BB010008BB01000880
:10007000BB010008BB010008BB010008BB01000870
:10008000BB010008BB010008BB010008BB01000860
:10009000BB010008BB010008BB010008BB01000850
:1000A000BB010008BB010008BB010008E5370008E0
:1000B000BB010008BB010008F1370008BB010008C4
:1000C000BB010008BB010008BB010008BB01000820
:1000D000BB010008BB0100080939000815390008F8
:1000E000BB010008BB010008BB01000800F002F8DA
:1000F00000F047F80AA090E8000C82448344AAF17B
:100100000107DA4501D100F03CF8AFF2090EBAE878
:100110000F0013F0010F18BFFB1A43F0010318473B
:100120007058000090580000103A24BF78C878C179
:10013000FAD8520724BF30C830C144BF04680C60ED
:10014000704700000023002400250026103A28BF35
:1001500078C1FBD8520728BF30C148BF0B60704739
:10016000642900F07F80002070471FB59DE80300E0
:1001700000F000FC00F024FA1FBD10B500F089FA71
:1001800010BD00F0B9FA1146FFF7EFFF03F03EFC97
:1001900000F0C0FB03B4FFF7F0FF03BC03F0CCFB9F
:1001A0000948804709480047FEE7FEE7FEE7FEE70B
:1001B000FEE7FEE7FEE7FEE7FEE7FEE70448054947
:1001C000054A064B70470000E1370008ED000008C3
:1001D000801C002080220020801E0020801E002025
:1001E000704700000FB4044910B503AA029800F04C
:1001F00087F910BC5DF814FB740000202DE9F04174
:100200000E460446002020622046E168884730B34D
:10021000252805D0D4E901219047206A401CF2E747
:10022000E168204600278847050018D0A5F1410065
:10023000192802D820354FF4006732462946204657
:100240002760FFF78DFF40B1012804D0F61D26F08E
:1002500007060836D8E7361DD6E72846DAE7206ACB
:10026000BDE8F0812DE9F0410646002410687529AB
:10027000314616A510D0AFF30080002802DA4042C4
:1002800013A507E031688A0701D512A502E04907E6
:1002900004D511A5012401E0AFF3008000210A225A
:1002A00006F1240709E0B0FBF2FCB0FBF2F302FB1D
:1002B0001C00303078541846491C0028F3D12346DE
:1002C0002A463046BDE8F04100F0C0B8000000000A
:1002D0002D0000002B00000020000000032A40F247
:1002E000308010F0030C00F0158011F8013BBCF1D8
:1002F000020F624498BF11F801CB00F8013B38BFF0
:1003000011F8013BA2F1040298BF00F801CB38BFFD
:1003100000F8013B11F0030300F00481083AC0F03B
:10032000088051F8043B083A51F804CBA0E80810C3
:10033000F5E7121D5CBF51F8043B40F8043BAFF3F6
:100340000080D20724BF11F8013B11F801CB48BF50
:1003500011F8012B24BF00F8013B00F801CB48BF86
:1003600000F8012B704702F0FF0343EA032242EA40
:10037000024200F002B84FF0000200B51346944666
:100380009646203922BFA0E80C50A0E80C50B1F1ED
:100390002001BFF4F7AF090728BFA0E80C5048BF01
:1003A0000CC05DF804EB890028BF40F8042B08BF9F
:1003B000704748BF20F8022B11F0804F18BF00F89B
:1003C000012B70474FF0013C50F8042B51F8043BCF
:1003D0009A4221D1A2EB0C03934313EACC1317D119
:1003E00050F8042B51F8043B9A4215D1A2EB0C03B0
:1003F000934313EACC130BD150F8042B51F8043B70
:100400009A4209D1A2EB0C03934313EACC13DBD03D
:100410004FF00000704700BFD01A01BAB1FA81F165
:1004200001F0180122FA01F0CB40DBB2C0B2C01AD1
:10043000C1F120012CFA01F3D11A914311EAC31141
:10044000E6D1704770477047704770472DE9F04715
:100450000D4699469246044600F124080168880634
:1004600004D5E06921F01001216000E00120A842DC
:1004700001DD471B00E00027A1697A1902EB0900A2
:10048000081AA0612078C00602D42046AFF300808D
:10049000002608E0D4E901211AF806009047206AF6
:1004A000401C761C20624E45F4DB2078C0060AD53D
:1004B0002046AFF3008006E0D4E9012130209047C8
:1004C000206A401C2062381EA7F10107F4DC07E017
:1004D000D4E9012118F805009047206A401C2062E9
:1004E000281EA5F10105F3DC2046AFF3008020783B
:1004F000000602D50220BDE8F0870120FBE70000DE
:10050000074B70B50D467B4400F043F8044628467F
:1005100000F052F810B14FF0FF3070BD204670BDB2
:10052000E334000010B5203AC0F00B80B1E8185059
:10053000A0E81850B1E81850A0E81850203ABFF4CD
:10054000F5AF5FEA027C24BFB1E81850A0E818506C
:1005500044BF18C918C0BDE810405FEA827C24BFC0
:1005600051F8043B40F8043B08BF7047D20728BF4E
:1005700031F8023B48BF11F8012B28BF20F8023B9D
:1005800048BF00F8012B704701694A1C02610878D6
:10059000704700B58FB0CDE90131002105910549C3
:1005A0007944CDE9031011466846FFF727FE0FB0E6
:1005B00000BD0000E5FFFFFF007B00F080007047FA
:1005C00010B542485421FFF7D6FE41485421FFF7A9
:1005D000D2FE40485421FFF7CEFE3F493B483C4AFB
:1005E0003F4B08603D490A603A491960531C036556
:1005F000481C1065012008653B48344A39A17844FD
:1006000000F0EAF820B9384878440A3800F08BF94D
:1006100037482F4A35A1784400F0DEF820B9344835
:1006200078440A3800F07FF932482A4A2FA17844EA
:1006300000F0D2F820B92F4878440A3800F073F956
:1006400040232248DC000021224600F0A1F820B11E
:1006500025487844543800F066F91D482246402366
:10066000002100F095F820B121487844543800F07A
:100670005AF9184822461023002100F089F8002872
:1006800006D01C487844BDE81040563800F04BB9FD
:1006900010BD104870B5006D20F001040B4800F04B
:1006A00013F90B4800F010F90A4800F00DF909E0C1
:1006B000206D20F00105204600F006F9204600F0EC
:1006C00040F82C46002CF3D170BD00002000002023
:1006D00074000020C800002000000020040000205A
:1006E00008000020720000002C530000770000007A
:1006F0001B530000F4520000754600F01BF9AE4693
:1007000005006946534620F00700854618B020B51D
:10071000FFF754FDBDE820404FF000064FF0000702
:100720004FF000084FF0000BAC46ACE8C009ACE855
:10073000C009ACE8C009ACE8C00921F007018D464A
:10074000704770B50446051F00F0F8F80068002CEB
:1007500014BF446870BD002C18BFAC423CBF20469B
:100760006468F8D301680A18AA4218BF456003D12B
:100770002A6805461144016028684119A1421CBF3E
:100780006C6070BD6168696021680844286070BD54
:1007900070B5C468A50713D0650211D4B2F5807F87
:1007A00009D0B2F5007F06D0B2F5806F08D10123E1
:1007B00000F1240106E05D1E6FF07F46B54201D3D3
:1007C000012070BD0161C361416024F47061114377
:1007D000C160002070BD00002DE9F0410C461646B6
:1007E000070047D0104600F06FF82078611C6128A0
:1007F0000AD0722802D077283CD102E001250024DB
:1008000005E00225042402E0082448F2020511F85C
:10081000010B2B2806D0622809D011F8010C74288E
:100820000AD00BE045F0030544F00204EFE745F081
:10083000040544F00104EAE744F010043846214678
:1008400003F086F8411C15D00021316171604FF42E
:100850000071F560F1617061200704D53046022215
:10086000002100F0E5F8306D40F0010030653046C1
:10087000BDE8F0810020FBE72DE9F0410D4606467A
:10088000104C206DC10704D0410804D020F00104B1
:10089000F7E722460EE0542000F09BF807000ED048
:1008A000206D47F001010843542120653846FFF7C9
:1008B00062FD3A4629463046BDE8F0418CE700200B
:1008C000D6E70000200000202DE9F04704464FF055
:1008D000FF380026C568D4E90497A80718D0204639
:1008E00000F062F9384603F01DF8002800DA4646A9
:1008F000280502D54846FFF724FF4C212046FFF784
:100900003AFD206D20F0010020653046BDE8F087FB
:100910004046FBE710B50446AFF300802046BDE833
:100920001040FFF737BC10B500F088F9BDE8104063
:1009300000F07EB9004870471C0100200048704755
:1009400024010020704770477047704738B504464F
:100950000A4600206946AFF30080002808BF38BD72
:1009600002460099204600F08AF9012038BD012096
:1009700000F0D9B9F8B5AFF30080054600200C4669
:10098000102000BF0646A819A0420DD9324669467C
:100990000020AFF30080070008BF00F0C4F9009802
:1009A000A04218BF0546C419FFF7C8FF05600746F7
:1009B000F01D20F007004619284600F059F9B4420E
:1009C00008BFF8BDA21B31463868BDE8F84000F00A
:1009D00056B970B50646FFF7B1FF056806F10B0082
:1009E00020F00704B4429CBF002070BD2B466A680B
:1009F000BAB11068A04210D304F1080188423CBF8C
:100A00005068586007D35168101941601168091B7C
:100A1000016058601460101D70BD13465268002AB2
:100A2000E7D121462846FFF791FF0028DED170BDAF
:100A30002DE9F041044616460D464769007B8007C4
:100A40002ED0384602F07CFF50BB3EB3012E02D0C0
:100A5000022E25D104E0204600F02BF905441DE0CC
:100A6000384602F06BFFE168002841F01001E160B8
:100A700005DA204600F058F80120BDE8F081C903EE
:100A80000BD56268E16A914200D81146A26911440F
:100A90002269891A814200DD08460544002D01DAE9
:100AA0000220EAE7E16A6068E268814206D29103C7
:100AB000E06203D522F4003141F01002A66900275C
:100AC000AE4213DCE16A814201D90B4600E00346E5
:100AD00003EB060C2369ACEB030CAC4506DD81424D
:100AE00001D98C4600E084469C4505D1A76027606B
:100AF00042F02000A5620DE0AD1BE669AE1B81420D
:100B0000A66000D90846C01A281A206058196060EB
:100B100022F0200003490840E060002084F848707B
:100B2000ABE70000BFCFD7FFC16821F4001141F04F
:100B30008001C16000218160016070472DE9F74F9D
:100B400015460C464FF0FF3B3848D768D2F814A042
:100B5000074209D05046A96902F02CFF002819DB92
:100B60003248C0430740EF604FF000496FF0004843
:100B70004C4501D3464600E0264600993B46504688
:100B8000324602F01BFFA96920F00042B21A11445C
:100B9000A96128B12846FFF7C7FF5846BDE8FE8F78
:100BA000A41BE5D10020F9E770B504460569C06AC9
:100BB0006168884200D80846E16821F42011E160AC
:100BC000C90312D5A84208D02246411B2846FFF788
:100BD000B5FF10B14FF0FF3070BD0020E562C4E9F1
:100BE0000150E06820F48030E060002070BD10B556
:100BF0000446C06820F02000E060A16AA069884235
:100C00000DD02046FFF7D0FFE06820F4405040F0C0
:100C10001000E060A06AA0612069E062606044F2B8
:100C20004001E0688843E06010BD00001000020051
:100C3000002801D002F080BE7047000010B50146C8
:100C400002A000F057F8012010BD000053494752A0
:100C5000545245443A2052656469726563743A207F
:100C600063616E2774206F70656E3A20000000008B
:100C700000210160C0E90110704710207047034651
:100C800040688C46002818BF88423CBF0346406835
:100C9000F8D318681844884207D00CF1030020F0FC
:100CA0000700001D411A521A0146081D0A60FFF78D
:100CB00048BD10B50146C268900703D0900607D51D
:100CC000886A0AE000F036F801210160881E10BD34
:100CD0008B69486818440B69C01A91F848301BB1F9
:100CE00091F84910401A10BD1103FCD50028FADD17
:100CF000401E10BD70B505460C460A2000E06D1C74
:100D000002F072FE35B128780028F8D102E0641CA8
:100D100002F06AFE14B120780028F8D1BDE87040D6
:100D20000A2002F061BE10B500F008F8BDE81040DE
:100D3000FFF77EBF004870471C01002010B5012856
:100D400005D0002103A0FFF7D5FF012010BD09A1A8
:100D5000F8E7000053494752544D454D3A204F752E
:100D600074206F662068656170206D656D6F7279A3
:100D7000000000003A2048656170206D656D6F725B
:100D80007920636F7272757074656400FEE700000D
:100D900070470000EFF3108072B600BFFEE700005E
:100DA000014690F82100022816D10868D1E90FC346
:100DB000026822F00E020260026822F00102026064
:100DC000012000FA03F2CCF8042081F82100002071
:100DD000002281F82020704704208863012000222F
:100DE00081F820207047000080B590F8211002297A
:100DF00024D10268116821F00E0111602F211368BF
:100E0000C4F202018A4240F20401C4F2020123F05A
:100E10000103136016DD3023C4F202039A421DD091
:100E20004423C4F202039A421CD05823C4F20203A2
:100E30009A421DD14FF4803322E000BF0421816328
:100E4000012080BD0823C4F202039A420ED01C2365
:100E5000C4F202039A420BD1102311E04FF48073C5
:100E60000EE000BF4FF480530AE000BF012307E00B
:100E700001F1680C4FF08073624508BF4FF4801396
:100E80000B60012180F82110426B002180F82010B6
:100E90000AB190470021084680BD0000B0B5044665
:100EA00000F02CF9054640F20C00C2F20000007878
:100EB000611C18BF044400BF00F020F9401BA04291
:100EC000FAD3B0BD2DE9F04F82B00E68002E00F0CD
:100ED000038141F20042C4F20102042340F2004EB9
:100EE000904208BF03234FF6FF7CC4F2010E00932B
:100EF00000240123C1F2100C4FF0000A4FF000094A
:100F000049E000BF012704F00C030F229A402BEAAE
:100F1000020207FA03F34FEA9A051A4346F825201E
:100F2000D1F804B040F20C455FEACB22DEF808208D
:100F300054BF22EA080242EA0802C4F20105CEF8D0
:100F400008202A685FEA8B2354BF22EA080242EA9B
:100F500008022A605FEA8B33DEF8042054BF22EADD
:100F6000080242EA08025FEACB33CEF80420DEF83A
:100F700000204FF0010354BF22EA080242EA0802AF
:100F8000CEF800200E680AF1010A36FA0AF204F1DE
:100F9000040400F0A18003FA0AF816EA080FF1D061
:100FA0004E68664512DC122E56D8DFE806F0350B87
:100FB0004549555555555555555555555555554D05
:100FC000510000BFD1F80C9046E000BF4FF6FF7211
:100FD000C1F2210296420FDC0022C1F211029642B8
:100FE0001AD00022C1F21202964215D00022C1F29C
:100FF0002102964210D02FE00022C1F22202964236
:101000000AD00022C1F23102964205D00022C1F27C
:101010003202964220D100BF8A684AB1012A14BF29
:10102000C0F81480C0F810804FF0080914E000BF29
:101030004FF0040910E000BFCA6802F108090BE094
:101040004FF0000908E000BFCA6802F1040903E09C
:10105000CA6802F10C0900BF22460646BAF1080F21
:1010600024BF203A043637680F25954027EA050546
:1010700009FA02F22A433260CA79D2067FF582AFBA
:1010800041F21803C4F202031A68AEF57E7642F00C
:1010900001021A601A6802F001020192019A2AF014
:1010A000030256F802B040F60002C4F20102904278
:1010B00010D040F60042C4F2010290423FF422AF49
:1010C00041F20002C4F20102009F904208BF0227D1
:1010D00019E700BF002716E702B0BDE8F08F000057
:1010E000C26802EA0103914341EA0341016170478A
:1010F000002A08BF090401617047000041F638402A
:10110000C2F200000068704740F20C0041F638411E
:10111000C2F20000C2F2000100780A6810440860C0
:101120007047000080B542F20000C4F2020001687E
:1011300041F010010160032000F0CEF80F2000F014
:1011400005F800F061F8002080BD0000B0B586B061
:1011500041F21C01C4F202010A68044642F0040292
:101160000A60096801A801F004010191019969462A
:1011700000F028FA049D002D18BF012500F044FA64
:101180004DF68361A840C4F21B31A0FB01014FF072
:10119000FF3000EB914140F6102040F60002C2F211
:1011A0000000C4F2000240F2E7330025C0E900214C
:1011B000C0E902530561856100F090FC054618B155
:1011C000284606B0B0BD00BF40F61020C2F20000B5
:1011D00000F05AFD05460028F2D11E2000F03CF830
:1011E0000F2C0DD81E2021460022002500F048F8C3
:1011F00040F21000C2F200000460284606B0B0BD04
:101200000125284606B0B0BD80B582B041F2180075
:10121000C4F202000168002241F00101016001688E
:1012200001F0010101910199416841F08051416053
:1012300040680F2100F08050009000986FF001008E
:1012400000F01EF80420C4F201000168022262F3DB
:101250001A61016002B080BD002848BF7047C1B26A
:1012600000F01F00012202FA00F04EF20012CEF24E
:10127000000242EAD10121F003010860704700003A
:1012800010B54EF60C5CCEF2000CDCF80030C3F367
:10129000022E8EF00704042C28BF0424BEF10303A1
:1012A0004FF0FF3E0EFA04F438BF0023A1439940EB
:1012B0000EFA03F39A43114300F00F0200F160436A
:1012C0000901043A03F564436244002848BF02F16F
:1012D0000C03197010BD00004EF60C51CEF2000147
:1012E0000A684FF6FF031A4060F30A2242F080605A
:1012F00040F0FD70086070472DE9F04182B004466F
:10130000007841F21C06C007C4F202064AD03068D9
:1013100010F0805808D1306840F08050306030685C
:1013200000F080500190019847F20007C4F20007D6
:101330003868C00512D4386840F480703860FFF710
:10134000DDFE05463868C00508D4FFF7D7FE401B10
:101350006428F7D9032002B0BDE8F081706810F46A
:10136000407012D0616801F4407188420DD07068FD
:1013700040F24042C4F24222012320F44071136043
:101380000023C007136071602AD17068616820F47F
:1013900040700843B8F1000F706003D1306820F04E
:1013A000805030602068810707D556F8181CA26865
:1013B00021F44041114346F8181CC00604D4002013
:1013C00002B0BDE8F08100BF56F8180CE16820F4C7
:1013D0008000084346F8180C002002B0BDE8F081F8
:1013E000FFF78CFE054641F2883700BF7068800722
:1013F000CBD4FFF783FE401BB8424FF00300F5D972
:10140000EBE700002DE9F04381B0002800F0858073
:1014100042F20008C4F202080446D8F800000D4663
:1014200000F0070088420CD2D8F8000020F0070036
:101430002843C8F80000D8F8000000F00700A842D0
:101440006BD1206841F204098107C4F2020917D563
:10145000410705D5D9F8001041F4E061C9F8001042
:10146000010705D5D9F8001041F46051C9F8001002
:10147000D9F80010A26821F0F0011143C9F800105A
:10148000C00741D1D8F8000000F00700A8420CD9ED
:10149000D8F8000020F007002843C8F80000D8F86A
:1014A000000000F00700A84237D12068410707D5A7
:1014B000D9F80010E26821F4E0611143C9F8001086
:1014C000000708D5D9F80000216920F4605040EAEF
:1014D000C100C9F80000D9F8002002F00C0008286B
:1014E00041F20020C0F27A0050D145F63D13C2F31C
:1014F0008341C0F60003595CD2033BD440F6001090
:10150000C0F23D00484341E0606802280AD001284B
:101510002AD159F8041C890308D4012001B0BDE880
:10152000F08300BF59F8041C8901F6D5D9F80010E2
:1015300021F003010843C9F80000FFF7DFFD06466C
:1015400041F28837D9F80000616800F00C00B0EB78
:10155000810F97D0FFF7D2FD801BB842F2D903204C
:1015600001B0BDE8F08300BF59F8041C8907D4D549
:10157000DCE700BFD9F8002045F62413C2F340424F
:10158000C0F600039A5C4843B0FBF2F0D9F80010B3
:1015900045F60C12C1F30311C0F60002515C40F293
:1015A000140220FA01F140F21000C2F200000068BB
:1015B000C2F200021160FFF7C9FD002001B0BDE8D2
:1015C000F08300000F22026041F20402C4F2020222
:1015D000136803F003034360136803F0F0038360B0
:1015E000136803F4E063C36012684FF4E06303EA36
:1015F000D202026142F20000C4F20200006800F070
:10160000070008607047000040F2140041F2040136
:10161000C2F20000C4F202010068096845F61C121B
:10162000C1F30221C0F60002515CC84070470000BF
:1016300040F2140041F20401C2F20000C4F20201BF
:101640000068096845F61C12C1F3C221C0F6000209
:10165000515CC840704700002DE9F04182B000287D
:1016600068D00446007841F20006C007C4F20206C2
:1016700025D0706800F00C0004281BD0706800F0C2
:101680000C00082802D17068C00313D460680028D9
:1016900000F06881B0F5A02F00F07C81B0F5803FAC
:1016A00000F07C81306820F480303060306820F4B5
:1016B000802076E13068800301D56068D0B320785F
:1016C000800718D5706810F00C0F07D0706800F014
:1016D0000C0008286ED17068C0036BD43068800796
:1016E00002D52069012825D13068616920F0F80011
:1016F00040EAC1003060207800071FD420784007FE
:1017000032D4E56995B1706800F00C00082840F00B
:101710008F80012D0ED07068216A00F480328A42D9
:1017200008D1616A00F47010884203D1002002B031
:10173000BDE8F081012002B0BDE8F081A069002879
:1017400062D00020C4F242200121C0F88014FFF7CB
:10175000D5FC0546706A800700F18C80FFF7CEFC4F
:10176000401B0228F6D92AE1F06910F0805808D110
:10177000F06940F08050F061F06900F08050009016
:10178000009847F20007C4F200073868C00529D462
:10179000386840F480703860FFF7B0FC054600BF41
:1017A0003868C0051ED4FFF7A9FC401B6428F7D990
:1017B00005E100BF2069002840F20000C4F2422089
:1017C00000F0828001210160FFF798FC054600BF10
:1017D000306880073FF588AFFFF790FC401B022878
:1017E000F6D9ECE0E068002800F08080052800F0E1
:1017F0009780012800F09880306A20F00100306264
:10180000306A20F0040092E00020C4F2422000215F
:10181000C0F88014FFF772FC054600BF706A8007AD
:101820007FF56CAFFFF76AFC401B0228F6D9C6E0D3
:101830000027C4F2422700203866FFF75FFC022D24
:1018400005460BD13068800140F1BE80FFF756FCA1
:10185000401B02284FF00300F4D968E7306880018C
:101860007FF564AFFFF74AFC401B02284FF00300EE
:10187000F4D95CE740F21400C2F20000006844F6BC
:10188000D351C1F26201A0FB0101480A019000BFDF
:1018900000BF0198411E002801913FF42FAF00BF07
:1018A0000198411E002801913FF428AF00BF019824
:1018B000411E002801913FF421AF00BF0198411E55
:1018C00000280191E4D119E700210160FFF716FC1F
:1018D000054600BF306880077FF50DAFFFF70EFCAF
:1018E000401B02284FF00300F4D920E7306A20F0B3
:1018F00001003062306A20F004003062FFF7FEFB26
:10190000054641F2883700BF306A800720D5FFF7CF
:10191000F5FB401BB8424FF00300F5D907E700BFC5
:10192000306A40F004003062306A40F001003062FA
:10193000FFF7E4FB054641F2883700BF306A8007B5
:1019400006D4FFF7DBFB401BB842F7D937E000BFF6
:10195000B8F1000F7FF4D5AEF06920F08050F0614F
:10196000CFE600BF306820F480303060306820F46B
:1019700080203060FFF7C2FB054600BF306880035F
:101980007FF59DAEFFF7BAFB401B64284FF00300C4
:10199000F4D9CCE6306840F480203060306840F400
:1019A00080303060FFF7AAFB054600BF3068800337
:1019B0003FF585AEFFF7A2FB401B6428F6D9032054
:1019C00002B0BDE8F08100BF206AB0F5803F05D1CC
:1019D0007168A26821F40031114371607168626A14
:1019E00021F4741111430843706001203866FFF739
:1019F00085FB0446306880013FF598AEFFF77EFB1B
:101A0000001B02284FF00300F4D990E67047000055
:101A100070470000B0B590F83C20012A04BF0220B6
:101A2000B0BD01F108053CCDD1E900CE23F47C53D3
:101A300022F470521A432EF4F0431A432CF4E0437C
:101A40001A4324F4C0431A432A43C96922F480424A
:101A5000036811435964002180F83C100846B0BD6A
:101A600010B590F83C20012A4FF0020233D080F8E4
:101A70003D200268D2F804E0D2F808C00C682EF0CD
:101A80007003234340F2FF74C4F20004A242536087
:101A90000ADCB2F1804F13D040F20043C4F20003DD
:101AA0009A420DD011E000BF42F60043C4F2010398
:101AB0009A4205D040F60003C4F200039A4204D1D2
:101AC00049682CF08003194391600121002280F8BD
:101AD0003D1080F83C20104610BD0000002804BFD7
:101AE0000120704710B5044690F83D0028B9002049
:101AF00084F83C00204600F067F8022084F83D009E
:101B0000206840F2FF730268C4F2000342F6004C02
:101B10009842C4F2010C15DCB0F1804F1AD040F2AB
:101B20000041C4F20001884214D0984218DCB0F1A0
:101B3000804F1DD040F20041C4F20001884217D00E
:101B40001AE000BF604505D040F60001C4F2000174
:101B50008842EAD1A16822F070020A439842E6DD89
:101B6000604505D040F60001C4F20001884203D16F
:101B7000216922F440720A43A36922F08001D4F85B
:101B800004E0E268194360450160C262C0F828E0E1
:101B900002D16169CCF8301001214161002084F844
:101BA000461084F83E1084F83F1084F8401084F802
:101BB000411084F8421084F8431084F8441084F8EB
:101BC000451084F83D1010BD80B586B00168002036
:101BD000B1F1804F059023D040F20040C4F20000E4
:101BE000814241D042F60040C4F20100814248D116
:101BF00041F21800C4F202000168002241F40061C1
:101C000001600068052100F40060019001981B202C
:101C1000FFF736FB1B2006B0BDE88040FFF71CBB7A
:101C200041F21801C4F202014A6842F001024A601E
:101C30004A6802F001020192019A0A6842F0040225
:101C40000A60096801F00401019101990221CDE9BE
:101C50000210049040F60000C4F2010002A9FFF750
:101C600031F906B080BD00BF41F21800C4F2020095
:101C7000416841F002014160406800F002000190BB
:101C8000019806B080BD000090F83D1001291CBFEE
:101C900001207047022180F83D10006840F2FF7279
:101CA000C168C4F20002904241F00101C16009DC48
:101CB000B0F1804F12D040F20041C4F200018842DE
:101CC0000CD012E042F60041C4F20101884205D076
:101CD00040F60001C4F20001884206D1816801F09B
:101CE0000701062904BF00207047016841F0010187
:101CF000016000207047000080B590F83C20012A68
:101D00004FF0020200F0C28080F83D20D0F800C001
:101D10004FF67772DCF8083023EA0202CCF808208C
:101D20000B684F2B28DC1F2B44DD202B45D0302B9C
:101D300043D0402B40F0AC80D1F804E0C968DCF817
:101D40002030DCF8202022F00102CCF82020DCF842
:101D5000182022F0F00242EA011123F00A0242EABE
:101D60000E02CCF81810CCF82020DCF8081041F056
:101D7000470121F0300180E06F2B27DDB3F5005FD4
:101D800048D0B3F5805F7AD0702B40F08180D1E9E4
:101D900001E3C968DCF8082043EA0E0322F47F421D
:101DA00043EA01211143CCF80810DCF8081041F097
:101DB000770162E00BB1102B6AD1DCF8081021F03A
:101DC0007001194341F0070157E000BF502B35D097
:101DD000602B5DD1D1F804E0C968DCF82030DCF874
:101DE000202022F01002CCF82020DCF8182022F469
:101DF000704242EA013123F0A00242EA0E12CCF80E
:101E00001810CCF82020DCF8081041F0670121F010
:101E1000100132E0D1E901E3C968DCF8082043EAA7
:101E20000E0322F47F4243EA01211143CCF808104B
:101E3000DCF8081041F480411FE000BFD1F804E055
:101E4000C968DCF82030DCF8202022F00102CCF850
:101E50002020DCF8182022F0F00242EA011123F0E1
:101E60000A0242EA0E02CCF81810CCF82020DCF866
:101E7000081041F0570121F02001CCF80810002291
:101E8000012180F83D10002180F83C10104680BDF3
:101E90000122F5E770470000F0B590F83C30012BC7
:101EA00004BF0220F0BD4FEAB202032A22D8DFE8C5
:101EB00002F00327476500BF0368D1E900C5D1F8E8
:101EC0000CE01C6A1A6A40F2FF7722F001021A62E3
:101ED0001A4652F8186FC4F20007BB4272DCB3F125
:101EE000804F7BD040F20047C4F20007BB4275D060
:101EF0008EE000BF0121002280F83C200846F0BDA2
:101F00000368D1E900E6D1E902C11C6A1A6A360207
:101F100022F010021A621A4652F8185F4FF2FF07B9
:101F2000BE4325F4734561F30F3624F0A0040EF090
:101F30000A0746EA050144EA071711601F623AE002
:101F40000768D1E900C5D1E902313C6A3A6A61F318
:101F5000071522F480723A623A4652F81C6F26F056
:101F6000F30645EA06014FEA5C0666F34924116070
:101F70003C62116821F00C01116040E00368D1E976
:101F800000E6D1E902C11C6A1A6A360222F48052C4
:101F90001A621A4652F81C5F4FF2FF07BE4325F43F
:101FA000734561F30F364FEA5E0746EA050167F3B2
:101FB0004D3411601C6211684FEA0C2321F440611A
:101FC00011601CE042F60047C4F20107BB4205D095
:101FD00040F60007C4F20007BB4219D126F0030601
:101FE000354324F00A070CF00A066EF30715374450
:101FF0009D611F629F6927F00C079F618B681168C4
:10200000194311600021002280F83C200846F0BDF1
:1020100046F00105E5E70000002804BF01207047F5
:1020200010B5044690F83D0028B9002084F83C0023
:10203000204600F067F8022084F83D00206840F256
:10204000FF730268C4F2000342F6004C9842C4F2E7
:10205000010C15DCB0F1804F1AD040F20041C4F2FF
:102060000001884214D0984218DCB0F1804F1DD096
:1020700040F20041C4F20001884217D01AE000BFCC
:10208000604505D040F60001C4F200018842EAD163
:10209000A16822F070020A439842E6DD604505D04F
:1020A00040F60001C4F20001884203D1216922F404
:1020B00040720A43A36922F08001D4F804E0E26888
:1020C000194360450160C262C0F828E002D161692D
:1020D000CCF8301001214161002084F8461084F8CA
:1020E0003E1084F83F1084F8401084F8411084F8C2
:1020F000421084F8431084F8441084F8451084F8A2
:102100003D1010BD7047000010B501680446086915
:10211000800744BFC8685FEA807039D40869400707
:1021200044BFC8685FEA40703ED40869000744BFF6
:10213000C8685FEA007045D40869C00644BFC86833
:102140005FEAC0604AD40869C0071CBFC8685FEA7C
:10215000C07051D10869000644BFC8685FEA0060DA
:1021600052D40869400644BFC8685FEA406053D44F
:102170000869800646BFC8685FEA806010BD6FF0DE
:10218000200220460A61BDE81040FFF741BC00BFB5
:102190006FF002000861012020778869800743D032
:1021A0002046FFF777FE45E06FF00400086102204B
:1021B0002077886910F4407F40D02046FFF76AFE00
:1021C00042E000BF6FF00800086104202077C86972
:1021D00080073DD02046FFF75DFE3FE06FF0100026
:1021E000086108202077C86910F4407F3AD0204663
:1021F000FFF750FE3CE000BF6FF001000861204691
:1022000000F006FB2168A5E76FF08000086120461A
:10221000FFF7FCFB2168A4E76FF04000086120464F
:1022200000F000FB2168A3E7204600F0F7F8204605
:1022300000F0ECFA2168002020776FE7204600F0DC
:10224000EDF8204600F0E2FA2168002020776CE7E4
:10225000204600F0E3F8204600F0D8FA216800207C
:10226000207769E7204600F0D9F8204600F0CEFA42
:1022700021680020207766E72DE9F04190F83C3096
:10228000012B04BF0220BDE8F0814FEAB202032A0D
:1022900030D8DFE802F00337679700BF026842F6E4
:1022A0000045146A136AC4F2010523F001031362A6
:1022B0005368D2F818C0AA428D68D1F800E024F023
:1022C000020444EA05040BD1CD68D1E9056723F483
:1022D000407324F00C0425F0040533432C433B43A6
:1022E0002CF0730747EA0E07536097614968516302
:1022F00014628BE00121002280F83C200846BDE8F2
:10230000F08100BF026842F60045146A136AC4F205
:10231000010523F0100313625368D2F818C0AA42D3
:102320008D68D1F800E024F0200444EA05140FD1B0
:10233000CD68D1E905876FF0400624F0C00406EAB5
:1023400005152C4323F4406348EA070543EA850357
:102350002CF4E64747EA0E2753609761496891637A
:10236000146253E0026842F60045146A136AC4F22C
:10237000010523F4807313625368D2F81CC0AA428B
:102380008D68D1F800E024F4007444EA05240FD1EC
:10239000CD68D1E905872D0240F2FF4624F4406460
:1023A000B5432C4323F4405348EA070543EA051399
:1023B0002CF0730747EA0E075360D7614968D16371
:1023C000146223E0026842F60046D2F820C0136A85
:1023D000C4F2010623F4805313625368D4690D6874
:1023E000D1F808E0B24204D14E6923F4804343EAB5
:1023F000861324F4E64646EA05265360D6612CF49B
:102400000057496847EA0E33116413620021002225
:1024100080F83C200846BDE8F081000070470000CD
:10242000002804BF0120704710B5044690F83D0015
:1024300028B9002084F83C00204600F067F802200C
:1024400084F83D00206840F2FF730268C4F2000384
:1024500042F6004C9842C4F2010C15DCB0F1804FFA
:102460001AD040F20041C4F20001884214D09842D0
:1024700018DCB0F1804F1DD040F20041C4F20001E1
:10248000884217D01AE000BF604505D040F6000131
:10249000C4F200018842EAD1A16822F070020A4326
:1024A0009842E6DD604505D040F60001C4F2000127
:1024B000884203D1216922F440720A43A36922F0C1
:1024C0008001D4F804E0E268194360450160C2620B
:1024D000C0F828E002D16169CCF8301001214161D7
:1024E000002084F8461084F83E1084F83F1084F8E9
:1024F000401084F8411084F8421084F8431084F8A6
:10250000441084F8451084F83D1010BD7047000059
:102510002DE9F04390F83C30012B04BF0220BDE8C8
:10252000F0834FEAB202032A3CD8DFE802F003430B
:1025300081BD00BF036842F600461D6A1A6AC4F2F4
:10254000010622F001021A621A465C6852F818CF9E
:10255000B3428E68D1F800E025F0020545EA060591
:102560000CD1CE68D1E9057824F4407425F00C052F
:1025700026F004063C43354344EA08042CF0730774
:1025800047EA0E075C609F614F6809695F631D62DF
:102590009F6947F008079F619F6927F004079F61C3
:1025A000B2E000BF0121002280F83C200846BDE8CF
:1025B000F08300BF036842F600461D6A1A6AC4F23F
:1025C000010622F010021A621A46D3F804C052F82B
:1025D000184FB3428E68D1F800E025F0200545EA97
:1025E000061510D1CE68D1E9058725F0C0096FF036
:1025F000400505EA06152CF4406647EA080745EA57
:10260000090546EA870C24F4E64444EA0E27C3F899
:1026100004C09F614F6809699F631D629F6947F409
:1026200000679F619F6927F480679F616BE000BF2F
:10263000036842F600461D6A1A6AC4F2010622F4D3
:1026400080721A621A46D3F804C052F81CEFB342E3
:102650008E680C6825F4007545EA062511D1CE6810
:10266000D1E9058725F44069360240F2FF4526EAA4
:1026700005052CF4405647EA080745EA090546EAED
:10268000071C2EF073072743C3F804C0DF614F68AF
:102690000969DF631D62DF6947F00807DF61DF69F1
:1026A00027F00407DF612FE0036842F60047D3F804
:1026B00020C01A6AC4F2010722F480521A621A4634
:1026C0005C6852F81C5FD1F800E08E68BB4204D110
:1026D0004F6924F4804444EA87142CF4005747EAF5
:1026E000063725F4E64646EA0E265C60DE614E6853
:1026F00009691E641F62DF6947F40067DF61DF69F3
:1027000027F48067DF610902136819431160002113
:10271000002280F83C200846BDE8F083002804BF72
:102720000120704710B5044690F83D0028B90020FC
:1027300084F83C00204600F067F8022084F83D0051
:10274000206840F2FF730268C4F2000342F6004CB6
:102750009842C4F2010C15DCB0F1804F1AD040F25F
:102760000041C4F20001884214D0984218DCB0F154
:10277000804F1DD040F20041C4F20001884217D0C2
:102780001AE000BF604505D040F60001C4F2000128
:102790008842EAD1A16822F070020A439842E6DD3D
:1027A000604505D040F60001C4F20001884203D123
:1027B000216922F440720A43A36922F08001D4F80F
:1027C00004E0E268194360450160C262C0F828E095
:1027D00002D16169CCF8301001214161002084F8F8
:1027E000461084F83E1084F83F1084F8401084F8B6
:1027F000411084F8421084F8431084F8441084F89F
:10280000451084F83D1010BD70470000704700006F
:10281000006840F60001C4F20001884218BF70470A
:10282000FEF772BC70470000704700007047000060
:10283000B0B582B0044600680168C368426901F01F
:102840002F05202D03F0200506D12DB1204602B022
:10285000BDE8B04000F0D8BF5FEA017C1EBF02F0C7
:10286000010E03F4907212EB0E0253D1226B012A77
:1028700005D111F0100218BF13F0100236D10A066C
:1028800022D513F080021FD094F8411021293FD1A6
:10289000A168B1F5805F03D12169002900F0708241
:1028A000216A4A1C226209784160E18C01390A04DC
:1028B000E1842DD1C16821F08001C160C16841F07F
:1028C0004001C16002B0B0BD490621D513F04001FE
:1028D0001ED0C16821F04001C1602021204684F84B
:1028E000411002B0BDE8B04000F074BC002101917D
:1028F000016801914168019101994069400613D432
:10290000A08DE18DE28D002A18BF884240F0BA8187
:1029100002B0B0BDCA0718BF13F4807240F0B68091
:102920004A0700F1B980BEE0E06B016849688AB2ED
:10293000002AEDD0A38D9A42EAD2E1858069202851
:1029400000F09C80206850E8030F216820F480701C
:1029500041E80302DAB1206850E8030F216820F44F
:10296000807041E8030292B1206850E8030F2168AB
:1029700020F4807041E803024AB1206850E8030F58
:10298000216820F4807041E80302002ADAD120682F
:1029900050E8050F216820F0010041E80502DAB196
:1029A000206850E8050F216820F0010041E8050289
:1029B00092B1206850E8050F216820F0010041E83D
:1029C00005024AB1206850E8050F216820F0010097
:1029D00041E80502002ADAD1206850E8050F216895
:1029E00020F0400041E80502DAB1206850E8050F08
:1029F000216820F0400041E8050292B1206850E8CB
:102A0000050F216820F0400041E805024AB1206826
:102A100050E8050F216820F0400041E80502002A37
:102A2000DAD1202084F8420000202063206850E89A
:102A3000030F216820F0100041E80302DAB120689A
:102A400050E8030F216820F0100041E8030292B122
:102A5000206850E8030F216820F0100041E80302CD
:102A60004AB1206850E8030F216820F0100041E8C7
:102A70000302002ADAD1E06BFEF792F902206063CC
:102A8000A08DE18D401A81B2204674E1626C42F063
:102A9000010262644A0706D5BEF1000F03D0626CE2
:102AA00042F0020262648A0706D5BEF1000F03D02D
:102AB000626C42F004026264BCF1000F09D545EA81
:102AC0000E02B2FA82F2520903D1626C42F008029D
:102AD0006264626C002A3FF41BAF11F0200118BF42
:102AE000002D03D0204600F08FFE20684069616C05
:102AF00000F0400001F00801401800F0B58000BF70
:102B0000206850E8030F216820F4907041E8030228
:102B1000BAB3206850E8030F216820F4907041E8B0
:102B2000030272B3206850E8030F216820F490700C
:102B300041E803022AB3206850E8030F216820F41B
:102B4000907041E80302002ADAD11AE0206850E8C8
:102B5000050F216820F0010041E80502DAB1206884
:102B600050E8050F216820F0010041E8050292B10C
:102B7000206850E8050F216820F0010041E80502B7
:102B80004AB1206850E8050F216820F0010041E8B3
:102B90000502002ADAD1206B012824D1206850E8F0
:102BA000030F216820F0100041E80302DAB1206829
:102BB00050E8030F216820F0100041E8030292B1B1
:102BC000206850E8030F216820F0100041E803025C
:102BD0004AB1206850E8030F216820F0100041E856
:102BE0000302002ADAD1202084F84200002020636A
:102BF0002068406940063FD5206850E8050F2168ED
:102C000020F0400041E80502DAB1206850E8050FE5
:102C1000216820F0400041E8050292B1206850E8A8
:102C2000050F216820F0400041E805024AB1206804
:102C300050E8050F216820F0400041E80502002A15
:102C4000DAD1E06BC0B143F2FD71C0F6000141631F
:102C5000FEF7CAF800283FF45BAEE06B416B02B0B0
:102C6000BDE8B040084700BF2046FFF7DFFD002069
:102C7000606402B0B0BD00BF204602B0BDE8B04005
:102C8000FFF7D4BD401A216851E8031F226821F4E0
:102C9000907142E80313DBB1216851E8031F2268F9
:102CA00021F4907142E8031393B1216851E8031FA6
:102CB000226821F4907142E803134BB1216851E876
:102CC000031F226821F4907142E80313002BDAD12C
:102CD000216851E8051F226821F0010142E805132F
:102CE000DBB1216851E8051F226821F0010142E8AB
:102CF000051393B1216851E8051F226821F00101F5
:102D000042E805134BB1216851E8051F226821F004
:102D1000010142E80513002BDAD1202184F842108A
:102D200000212163216851E8031F226821F010016E
:102D300042E80313DBB1216851E8031F226821F048
:102D4000100142E8031393B1216851E8031F226880
:102D500021F0100142E803134BB1216851E8031F31
:102D6000226821F0100142E80313002BDAD102227D
:102D700081B22046626302B0BDE8B040FFF754BDA7
:102D8000216A31F8022B6FF35F22426021628CE5E9
:102D9000002804BF0120704710B5044690F8410098
:102DA00028B9002084F84000204600F063F8242071
:102DB00084F841002068D4E90212C36823F4005368
:102DC000C360036923F440531A430261D4E9042326
:102DD0001143C268194341F20C639A431143C16025
:102DE0004169A26921F44071114343F60002C4F223
:102DF00001029042416103D0FEF706FC02E000BFF1
:102E0000FEF716FC6268192148439100B0FBF1F00F
:102E100048F21F51C5F2EB11A0FB01235A094FF6EE
:102E20009C73C0F6FF7302FB0300322303EB001018
:102E3000A0FB0101F02303EA5113206803EB021207
:102E4000C1F3431111448160016921F49041016192
:102E5000416921F02A014161C16841F40051C1601A
:102E600000202021606484F8411084F842106063DF
:102E700010BD0000F0B585B0006844F60001C4F252
:102E8000000188424FF00001CDE90311CDE90111A5
:102E900024D044F20041C4F20001884259D141F2E9
:102EA0001800C4F20200416840F6000541F4003108
:102EB00041604168262401F40031009100990168C5
:102EC000082741F0040101600068C4F2010500F028
:102ED0000400009000980420019021E041F21800C5
:102EE000C4F202004168272441F480214160416816
:102EF0004FF4006701F4802100910099016841F0CE
:102F000008010160006800F00800009000984FF48C
:102F10008060019040F60000C4F2010000F5806579
:102F200002200290032001AE049028463146FDF7AE
:102F3000C9FF0020CDE90200284631460197FDF780
:102F4000C1FF204605210022FEF79AF92046FEF730
:102F500083F905B0F0BD0000704700002DE9F04393
:102F600081B0044690F84100202840F0B1808846A6
:102F700000294FF0010000F0D6801646002A00F02C
:102F8000D2800020606421201D4684F84100FEF7B5
:102F9000B5F8A684E684A1680646B1F5805F03D142
:102FA0002069002800F0988047464FF00008E18C27
:102FB0002068002900F0968005F101090BE000BFB0
:102FC00047B317F8011B4160E18C0139E184E18CC2
:102FD000002900F0878001680906F1D4B9F1000FDB
:102FE0000AD0EDB1FEF78AF8801BA84218D82068F5
:102FF00001680906F6D5E3E701680906E0D401682F
:1030000009065CBF01685FEA0161D9D4016809065D
:10301000F2D5D5E738F8021B00276FF35F21D2E71E
:10302000206850E8030F216820F4D07041E80302C3
:10303000BAB3206850E8030F216820F4D07041E84B
:10304000030272B3206850E8030F216820F4D070A7
:1030500041E803022AB3206850E8030F216820F4F6
:10306000D07041E80302002ADAD11AE0206850E863
:10307000050F216820F0010041E80502DAB120685F
:1030800050E8050F216820F0010041E8050292B1E7
:10309000206850E8050F216820F0010041E8050292
:1030A0004AB1206850E8050F216820F0010041E88E
:1030B0000502002ADAD1202084F8410084F8420079
:1030C000002084F84000032001B0BDE8F08300BF79
:1030D000022001B0BDE8F0830027E18C20680029C0
:1030E0007FF46AAF0168490619D4FDB1691C0DD19E
:1030F0000168490613D4016849065CBF01685FEAAC
:1031000041610CD401684906F2D508E0FDF7F6FFED
:10311000801BA8420AD8206800684006F6D5202007
:1031200084F84100002001B0BDE8F083206850E839
:10313000030F216820F4D07041E80302002A3ED03A
:10314000206850E8030F216820F4D07041E80302A2
:10315000AAB3206850E8030F216820F4D07041E83A
:10316000030262B3206850E8030F216820F4D07096
:1031700041E80302002AD9D121E000BF206850E8CD
:10318000050F216820F0010041E80502002A3FF404
:1031900092AF206850E8050F216820F0010041E857
:1031A0000502002A3FF487AF206850E8050F216828
:1031B00020F0010041E80502002A3FF47CAF2068BE
:1031C00050E8050F216820F0010041E80502002ABF
:1031D000D4D170E770470000FEE7000080B543F2ED
:1031E000957045F65012C0F60000C0F600020021AE
:1031F00000F0ECFC40F63411C2F20001086080BD22
:103200002DE9F04F85B041F21800C4F202000168C8
:1032100040F6004841F0100101600168C4F2010865
:1032200001F0100101910199016808F5806741F0F2
:10323000200101600168002201F020010191019943
:1032400001684FF0000941F004010160016801F0DC
:10325000040101910199016841F0080101600068D1
:103260004FF4604100F00800019001983846FDF7E6
:103270003FFFA8F580663046012100220124FDF7BA
:1032800037FF404643F20B310022FDF731FF4FF488
:10329000005001A901AD81E811024FF0030A384640
:1032A0002946CDF810A0FDF70DFE4FF440400190E7
:1032B0004FF0110B38462946CDE902B4CDF810A0E5
:1032C000FDF700FE30462946CDE90144CDE9039AD9
:1032D000FDF7F8FD48F21000CDE901090220039046
:1032E00030462946FDF7EEFD43F2030001A981E8CF
:1032F000110640462946FDF7E5FD0820CDE9010409
:1033000040462946CDE9034AFDF7DCFDF020CDE932
:10331000010940462946CDF80C90FDF7D3FD4FF446
:103320004070CDE9010B40462946CDE9034AFDF73F
:10333000C9FD05B0BDE8F08F70B59CB040F6000443
:10334000C4F2010440F63810002104F51052C2F214
:1033500000004FF6FF731691CDE914111191CDE9DC
:103360000F11CDE90D11CDE90B11CDE90911CDE911
:103370000711CDE90511CDE90311CDE90111C0E92E
:103380000021C0E90213C0E904118161FEF7A6FB28
:10339000002818BFFDF7FEFC4FF48050139040F654
:1033A0003810C2F2000013A9FEF7A6FC002818BFCF
:1033B000FDF7F0FC40F63810C2F20000FFF730F8DD
:1033C000002818BFFDF7E6FC40F638100025C2F2D1
:1033D000000010A9CDE91055FEF742FB002818BFE8
:1033E000FDF7D8FC40F63810C2F2000009A900220F
:1033F0000F95CDE90D55CDE90B55CDE90955FEF7F2
:103400003BFF002818BFFDF7C5FC40F63810C2F29C
:10341000000009A90422FEF72FFF002818BFFDF7BE
:10342000B9FC40F638154FF40050C2F200050026F2
:10343000069001A928460596CDE90366CDE9016607
:103440000896FEF7E7FA002818BFFDF7A3FC2868E6
:1034500040F20041C4F2000188421A9616D042F6AA
:103460000041C4F20101884226D141F21800C4F2A1
:103470000200016841F004010160006800F00400EE
:10348000179017984FF440700EE000BF41F21800FB
:10349000C4F20200016841F004010160006800F01C
:1034A00004001790179840201890022019901B9044
:1034B00018A92046FDF706FD1CB070BD10B58AB0F6
:1034C00040F680100021C2F200004FF080424FF61B
:1034D000FF730991CDE90711CDE90411CDE902117E
:1034E000CDE90011C0E90021C0E902130161816149
:1034F000FEF7F4FA002818BFFDF74CFC4FF480509B
:10350000069040F68010C2F2000006A9FEF7F4FB18
:10351000002818BFFDF73EFC40F68010C2F2000004
:10352000FEF77AFD002818BFFDF734FC40F6801046
:103530000024C2F2000004A9CDE90444FEF790FA89
:10354000002818BFFDF726FC0120CDE9010440F654
:103550008010C2F200006946042200940394FEF732
:103560009BFC002818BFFDF715FC0AB010BD000039
:10357000B0B594B040F2004540F6C810C4F2000562
:103580000021C2F20000472244F61F630E91CDE9EC
:103590000C110991CDE90711CDE90511CDE9031110
:1035A000CDE90111C0E90052C0E902130161816156
:1035B000FEF794FA002818BFFDF7ECFB4FF480509B
:1035C0000B9040F6C810C2F200000BA9FEF794FB66
:1035D000002818BFFDF7DEFB40F6C810C2F200005D
:1035E000FFF79CF8002818BFFDF7D4FB40F6C81081
:1035F0000024C2F2000008A9CDE90844FEF730FA21
:10360000002818BFFDF7C6FB6020CDE90104039434
:10361000059440F6C814C2F2000401A92046002215
:10362000FEF776FF002818BFFDF7B4FB20680021E5
:10363000A842129116D042F60041C4F2010188421C
:1036400027D141F21800C4F20200016841F00401E0
:103650000160006800F004000F900F984FF4407074
:103660000EE000BF41F21800C4F20200016841F010
:1036700004010160006800F004000F900F984020E2
:10368000109002201190139005F5823010A9FDF7DB
:1036900019FC14B0B0BD000080B540F6582044F2CB
:1036A0000041C2F20000C4F2000100234FF00C0CF4
:1036B0004FF4E13280E80E00C0E90333C0E905C3EE
:1036C000C361FFF765FB002808BF80BDBDE88040EF
:1036D000FDF760BB80B540F6A02044F60001C2F2C1
:1036E0000000C4F2000100234FF00C0C4FF4E13253
:1036F00080E80E00C0E90333C0E905C3C361FFF7EA
:1037000047FB002808BF80BDBDE88040FDF742BBF5
:10371000FEE70000FEE700000000000000000000DF
:10372000EFF30980BFF36F8F0D4B1A6820E9F00F9C
:1037300010602DE908404FF0500080F3118801F02F
:10374000F9FA4FF0000080F31188BDE808401968CD
:103750000868B0E8F00F80F30988BFF36F8F7047F7
:103760007C010020000000000000000000000000BC
:10377000074B19680868B0E8F00F80F30988BFF3B9
:103780006F8F4FF0000080F311884EF00D0E7047E0
:103790007C01002041F20004C4F2010420464FF4F1
:1037A0000051FDF79DFC4FF4FA7000F0B5F9F5E714
:1037B00080B54FF0500080F31188BFF36F8FBFF3D7
:1037C0004F8F01F0D3FE30B14EF60450CEF2000020
:1037D0004FF080510160002080F3118880BD00000F
:1037E0007047000040F63810C2F20000FEF78CBCB3
:1037F00040F61020C2F20000FEF786BC406A0021AD
:10380000C185C184FFF712B881B090F84210222917
:1038100021D183680246B3F5805F09D152F8281F91
:1038200052F8183C002B63D003685B680AE000BFC5
:1038300052F8281F13B90369002BF5D003685B68A1
:1038400003F07F030B70116801311160C18D0139E4
:103850000A04C18502D001B0704700BF0168CA6880
:1038600022F02002CA60CA6822F48072CA604A69E3
:1038700022F001024A61202180F8421000214163B8
:10388000026B012A3CD10163016851E8031F026801
:1038900021F0100142E80313DBB1016851E8031F76
:1038A000026821F0100142E8031393B1016851E866
:1038B000031F026821F0100142E803134BB10168B5
:1038C00051E8031F026821F0100142E80313002BA6
:1038D000DAD101680A68D20606D5002200920A6889
:1038E0000092496800910099818D01B0FEF79CBF5C
:1038F000026852686FF35F2221F8022B8162A5E70C
:1039000001B0FFF729BB000040F65820C2F20000CA
:10391000FEF78EBF40F6A020C2F20000FEF788BF7F
:10392000FEE7000048F20401411A002011F1030FE4
:1039300038BF4FF0FF307047FEE7000000207047AF
:1039400048F20101411A0020032938BF01207047C5
:1039500010B518B3044600783A281FD145F62E1149
:10396000C0F600012046FCF72DFDD8B145F6351113
:10397000C0F600012046FCF725FDB8B145F626113A
:10398000C0F600012046FCF71DFD01464FF0FF3058
:10399000002908BF48F2030010BD00BF4FF0FF3000
:1039A00010BD00BF48F2010010BD00BF48F2020088
:1039B00010BD00004FF0FF307047000048F20301D7
:1039C00088420ED048F2020188421CBF4FF0FF30FF
:1039D0007047002A04BF0020704700BF013A00BEB4
:1039E000FCD100207047000000BE704780B582B057
:1039F000019040F6A020C2F2000001A901224FF67A
:103A0000FF73FFF7ABFA019802B080BD94B0FDF7E9
:103A100089FB00240120CDE90F44CDE90D440A9033
:103A20000E904FF4E0104FF48031022513900AA855
:103A30000494CDE90244CDE90B14CDE91151FDF711
:103A40000BFE28B1EFF3108072B600BFFEE700BF97
:103A50000F20CDE905054FF48060CDE9080405A8E5
:103A600002210794FDF7CEFC20B1EFF3108072B66F
:103A7000FEE700BF022001904FF40040039001A830
:103A8000FDF73AFC20B1EFF3108072B6FEE700BFFD
:103A9000FFF7B6FBFFF750FCFFF710FDFFF768FDDF
:103AA000FFF7FAFDFFF716FE41F20004C4F201042D
:103AB00020464FF40051FDF713FB45F68015C0F684
:103AC000000528460021FCF78DFB4FF47A70FDF7C6
:103AD000E5F920464FF40051FDF702FB284601218D
:103AE000FCF780FB4FF47A70FDF7D8F920464FF4CD
:103AF0000051FDF7F5FA28460221FCF773FB4FF45D
:103B00007A70FDF7CBF900F021F8FFF767FB00F0C2
:103B10003BF800BFFEE7000080B5EFF3058111B967
:103B2000EFF3108111B16FF0050080BD40F2D44178
:103B3000C2F200010968022903D1EFF311810029C3
:103B4000F1D108B100F0AEFF002080BDEFF3058099
:103B500010B9EFF3108018B16FF00500704700BF87
:103B600040F2D440C2F200000168022904D1EFF310
:103B700011810029F0D10168002911BF4FF0FF30F9
:103B8000012101600020704780B5EFF3058010B976
:103B9000EFF3108010B16FF0050080BD40F2D4400B
:103BA000C2F200000168022904D1EFF3118100295B
:103BB000F1D1016801291CBF4FF0FF3080BD022107
:103BC000016001F039F8002080BD00002DE9F041CE
:103BD00086B000240B460494EFF3058121B1204602
:103BE00006B0BDE8F08100BFEFF3108121B10024E1
:103BF000204606B0BDE8F08140F2D441C2F2000197
:103C00000968022908D100284FF00004EFF3118160
:103C1000E5D019B1E3E700BF0028E8D000240DF19A
:103C200017018DF817408AB31768D2F818E0002FF3
:103C300018BF3946BEF1000F08BF4FF0180EBEF195
:103C4000380FD4D81779FF07D1D15769D2E9028646
:103C50004FEA970C002F654608BF8025B8F1000F8A
:103C600026D05C2EC3D312690024002A18BF002F6F
:103C7000B5D0CDE900E26246CDF8088001F026FC1F
:103C80000446204606B0BDE8F08100BF80254FF015
:103C9000180E04AFAAB2CDF800E0019701F0E6FBE0
:103CA0000499012808BF0C46204606B0BDE8F08103
:103CB000002E9CD11269002A99D1EAE72DE9F04142
:103CC000044600F0B1FD40F27C16C2F20006F06836
:103CD00040F6D8350130F0603068C2F2000558B1C6
:103CE0003069002840F007813068E16AC06A884284
:103CF00098BF3460FFE000BF3460F068012840F0F6
:103D0000FA80284600F040FD05F1140000F03CFD6B
:103D100005F1280000F038FD05F13C0000F034FD0D
:103D200005F1500000F030FD05F1640000F02CFDBD
:103D300005F1780000F028FD05F18C0000F024FD6D
:103D400005F1A00000F020FD05F1B40000F01CFD1D
:103D500005F1C80000F018FD05F1DC0000F014FDCD
:103D600005F1F00000F010FD05F5827000F00CFD8B
:103D700005F58C7000F008FD05F5967000F004FD67
:103D800005F5A07000F000FD05F5AA7000F0FCFC40
:103D900005F5B47000F0F8FC05F5BE7000F0F4FC19
:103DA00005F5C87000F0F0FC05F5D27000F0ECFCF1
:103DB00005F5DC7000F0E8FC05F5E67000F0E4FCC9
:103DC00005F5F07000F0E0FC05F5FA7000F0DCFCA1
:103DD00005F5027000F0D8FC05F5077000F0D4FC82
:103DE00005F50C7000F0D0FC05F5117000F0CCFC6E
:103DF00005F5167000F0C8FC05F51B7000F0C4FC5A
:103E000005F5207000F0C0FC05F5257000F0BCFC45
:103E100005F52A7000F0B8FC05F52F7000F0B4FC31
:103E200005F5347000F0B0FC05F5397000F0ACFC1D
:103E300005F53E7000F0A8FC05F5437000F0A4FC09
:103E400005F5487000F0A0FC05F54D7000F09CFCF5
:103E500005F5527000F098FC05F5577000F094FCE1
:103E600005F55C7000F090FC05F5617000F08CFCCD
:103E700005F5667000F088FC05F56B7000F084FCB9
:103E800005F5707000F080FC05F5757000F07CFCA5
:103E900005F57A7000F078FC05F57F7000F074FC91
:103EA00005F5826000F070FC05F2244000F06CFC27
:103EB00005F5876000F068FC05F24C4000F064FCFA
:103EC00040F25028C2F20008404600F05DFC08F1C4
:103ED0001407384600F058FC06F1640000F054FC6A
:103EE00006F13C0000F050FC06F1500000F04CFCE4
:103EF000C6F81C8037627068716A421CE06A7260A2
:103F00008842626488BF706200EB800005EB80002D
:103F1000211D00F07BFC00F0ABFC306988B13068FB
:103F2000E16AC06A884228BFBDE8F0814EF60450BD
:103F3000CEF200004FF080510160BFF34F8FBFF30E
:103F40006F8FBDE8F081000040F27C1540F6D83656
:103F50004EF60458C2F20005C2F20006CEF2000886
:103F60004FF0805703E000BF204600F099FCA8689E
:103F7000D0B100F059FCA86CC468201D00F0D6FB3D
:103F8000E8680138E860A8680138A86000F070FCB3
:103F900094F859000228EAD00128E5D070B9206BC6
:103FA00000F07EFCE0E700BF30680228DFD3C8F8ED
:103FB0000070BFF34F8FBFF36F8FD8E74FF0500003
:103FC00080F31188BFF36F8FBFF34F8FFEE70000C0
:103FD0002DE9F0470A9C8246206B16460F46DDE924
:103FE00008599100A5229846FCF7BDF93978206B55
:103FF00084F8341000EB860039780438002920F06A
:1040000007064BD0787884F835007878002845D0BA
:10401000B87884F83600B87800283FD0F87884F86B
:104020003700F878D0B3387984F838003879A8B3F5
:10403000787984F83900787980B3B87984F83A00CF
:10404000B87958B3F87984F83B00F87930B3387A06
:1040500084F83C00387A08B3787A84F83D00787A9E
:10406000E0B1B87A84F83E00B87AB8B1F87A84F84A
:104070003F00F87A90B1387B84F84000387B68B113
:10408000787B84F84100787B40B1B87B84F84200AB
:10409000B87B00281CBFF87B84F843000027201D54
:1040A00084F84370372D28BF3725E562C4E91357DC
:1040B00000F076FB04F1180000F072FBC5F1380047
:1040C000A06130465146424624616462676584F8C7
:1040D000587000F01BFBB9F1000F206018BFC9F841
:1040E0000040BDE8F087000006480068006880F3E3
:1040F000088862B661B6BFF34F8FBFF36F8F00DFE2
:1041000000BF000008ED00E081B00020009040F208
:104110001800C2F2000000684FF0500181F31188CE
:10412000BFF36F8FBFF34F8F013007D0FEE700BFA3
:10413000009830B9009820B9009810B9009800286C
:10414000F6D001B07047000088B040F2F41AC2F215
:10415000000A4FF0000B0DF11009E846DAF80800EC
:1041600005681DB1C068046801E000BF002400F0CC
:10417000D9FD01F0F5F9DAF810100646884224D38B
:10418000002DCAF8106053D0A64251D301F0ECFACA
:10419000DAF80800C068C7683D1D284600F0C6FA76
:1041A000F869012840F08080B8693F610119B14287
:1041B00079605BD90AF108005DE000BF6860DAF859
:1041C000080039462D6100F0EFFADAF808000168BE
:1041D00021B3C068C56804682F1D384600F0A6FAF0
:1041E000696A28468847E8690128EED1A869204411
:1041F000A042E3D8DAF80000002800F02581CDE9DC
:1042000004B4069501F09CF9DAF800004946002252
:10421000002300F0F1FE0028D7D115E1DAF80C10E8
:10422000CAF81060CAE9021001F09EFA46E000BF29
:1042300015B1002206E000BFDAF80C000068B0FA01
:1042400080F04209DAF80000A11B00F001FC01F047
:104250008BFA98BB4EF60450CEF200004FF080511E
:104260000160BFF34F8FBFF36F8F27E0311B814297
:1042700006D20AF10C000068294600F095FA13E016
:10428000DAF80000002800F0FD80CDE904B40697BC
:1042900001F056F9DAF8000049460022002300F048
:1042A000ABFE002800F0EE80796A3846884705E0CA
:1042B0000AF10C00006800F077FA00BFDAF800009D
:1042C0004146002200F0AEFF00283FF447AF0098BF
:1042D000B0F1FF3F06DCDDE901200399904700982B
:1042E0000028EBD4029E706910B1301D00F01EFA58
:1042F00001F036F9DAF81010074688420DD300981D
:10430000CAF8107009283BD9D8E700BF6860DAF80E
:10431000080021462D6100F047FADAF8080001682C
:1043200021B3C068C568D0F800802C1D204600F07D
:10433000FDF9696A28468847E8690128EDD1A8692E
:1043400040444045E2D8DAF80000002872D0CDE9B8
:1043500004B8069501F0F4F8DAF8000049460022A6
:10436000002300F049FE0028D7D163E0DAF80C10F2
:10437000E846CAE902100098CAF8107009289DD8CA
:104380000121814011F0C70F10D0019AB069314668
:10439000831841F8043FBB4236611DD997420AF1A8
:1043A0000800BFF487AF93421AD283E711F4047F69
:1043B00034D001980028B0615AD0384431460AF10F
:1043C0000C0241F8040F3661B84288BF0AF10802B6
:1043D000106800F0E9F971E7BA1A8242FFF468AF99
:1043E000716A30468847F06901287FF467AFDAF8D0
:1043F0000000002832D00198B16906960844CDE942
:1044000004B001F09DF8DAF80000494600220023CC
:1044100000F0F2FD00287FF451AF1FE005287FF483
:104420004DAF96F82C0000287FF448AF304600F0DE
:1044300037FA43E74FF0500080F31188BFF36F8FD6
:10444000BFF34F8FFEE700BF4FF0500080F311889D
:10445000BFF36F8FBFF34F8FFEE700BF4FF05000E9
:1044600080F31188BFF36F8FBFF34F8FFEE700BF5C
:104470004FF0500080F31188BFF36F8FBFF34F8F61
:10448000FEE700BF4FF0500080F31188BFF36F8F3D
:10449000BFF34F8FFEE70000F0B581B0044600F097
:1044A000C3F994F94560012E0FDB04F1240500BF28
:1044B000286850B1284601F01DF9002818BF00F007
:1044C0003BFBF0B2013E0128F2D8FF2684F845609C
:1044D00000F0CEF900F0A8F994F94470012F0EDB3A
:1044E00004F11005286850B1284601F003F90028AE
:1044F00018BF00F021FBF8B2013F0128F2D884F880
:10450000446001B0BDE8F04000F0B2B970B50446B7
:1045100000F008FC40F2302CC2F2000CDCF8040081
:1045200050B19CF80000002818BF4FF000404FF039
:10453000000584BB8FE000BF41F23800C2F20000EA
:10454000C21D22F0070210F00701A0EB020318BF02
:10455000104600224FF44065CCF81000CCF814202F
:10456000002918BF03F54065411921F00701A1F1A9
:104570000803CCF8043041E90222191AC0E90031DD
:1045800001208CF800004FF00040CCE90211002C13
:104590004FF000055FD020405DD124F0070000F10E
:1045A0001002600708BF04F10802002A4FF000055E
:1045B00051D0DCF8080082424DD8604650F810EF28
:1045C000DEF8045095422CD2DEF80010C1B17446DA
:1045D0004D68954218D20B68B3B15D68954217D209
:1045E0001868A8B14568954216D20468A4B16568F8
:1045F000954215D22168A6460029E9D111E000BFF5
:104600000CF110000DE000BF8E46204609E000BF0F
:104610009E46084605E000BF8646184601E000BFFA
:10462000A646DCF804108E4514D00168DEF8004080
:10463000AB1A112B04604CD30EEB0205680719D09E
:104640004FF0500080F31188BFF36F8FBFF34F8F8F
:10465000FEE700BF002501F087F8680754D04FF04F
:10466000500080F31188BFF36F8FBFF34F8F00BFEF
:10467000FEE700BF0CF110006B60CEF8042000BF15
:104680000368AB420AD21868A8420BD20368AB4257
:1046900004D218681A46A842F2D304E0024618462B
:1046A00001E000BF1A4653686C68D618AE4202D1CA
:1046B0001C44154654602B19834206D1DCF80430A3
:1046C000984202D009C823446B60AA42286018BFF0
:1046D000156001F10805DEF80400DCE90212091A90
:1046E0009142CCF8081038BFCCF80C109CF80010A0
:1046F00000294FF0000118BF40F00040CEE9001043
:1047000001F032F86807AAD1284670BD034644F28A
:104710000910C0F600004FF0807C21F0010103E990
:104720000310A3F1400043F8202C7047D0E9013278
:1047300001699A60D1F804C082688445536008BF5B
:104740004A60002202610868013808600868704702
:1047500040F27843C2F20003036040F27820C2F2D4
:1047600000000860802010607047000040F6D80309
:10477000C2F20003036040F2D840C2F200000860B9
:104780004FF48070106070474FF0FF31024642F8DE
:10479000081F00214260C0E9032201607047000049
:1047A000002101617047000010B5D1F800E01EF152
:1047B000010213D000F1080462681368734511D830
:1047C00053681C68744511D85A68146874450FD82A
:1047D00054682368A4467345EED90BE00269D2F809
:1047E00004C007E09446224604E000BF9C4601E076
:1047F00094461A46C1F804C0CCF808108A6051608B
:10480000086101680131016010BD0000D0F800C0EE
:10481000436808619A684B608A609A689960516041
:104820000CF10101016070474FF0500080F31188D6
:10483000BFF36F8FBFF34F8F40F21800C2F200003A
:1048400001684A1C026009B1704700BF4EF604506F
:10485000CEF200000068000608BF70474FF050001D
:1048600080F31188BFF36F8FBFF34F8FFEE7000017
:1048700040F21800C2F20000016839B1013901604C
:1048800018BF7047002080F3118870474FF0500028
:1048900080F31188BFF36F8FBFF34F8FFEE70000E7
:1048A00070B5002808BF70BD40F23026C2F2000685
:1048B0000446307854F8041C002818BF4FF000401C
:1048C00008420DD0A4F108052A689AB14FF05000B3
:1048D00080F31188BFF36F8FBFF34F8FFEE700BFE8
:1048E0004FF0500080F31188BFF36F8FBFF34F8FED
:1048F000FEE700BF21EA000044F8040C00F012FAC1
:1049000054F8041CB0680844B06006F1100000BF01
:104910000368AB420AD21868A84221D20368AB42AE
:1049200004D218681A46A842F2D301E0024618469B
:104930005368D418AC4202D11944154651606B1823
:10494000834205D17368984202D009C8194469604E
:10495000AA42286018BF1560BDE8704000F004BF8F
:104960001A465368D418AC42E9D1E5E74EF210007C
:10497000CEF2000000210160816040F21401C2F219
:104980000001096844F6D352C1F26202A1FB02128F
:104990004FF0FF3101EB9211416007210160704738
:1049A00041F63C4CC2F2000CDCF8002022B3634616
:1049B00053F8082F42B3634653F8102F52B363469F
:1049C00053F8182F62B3634653F8202F72B363462F
:1049D00053F8282F82B3634653F8302F92B36346BF
:1049E00053F8382F002A18BF7047072219600CEBC4
:1049F000C2014860704700BF0022634619600CEB9B
:104A0000C2014860704700BF012219600CEBC2016F
:104A100048607047022219600CEBC2014860704781
:104A2000032219600CEBC201486070470422196030
:104A30000CEBC20148607047052219600CEBC20103
:104A400048607047062219600CEBC201486070474D
:104A500070B515460E460446FFF7E6FE94F844008E
:104A6000FF2804BF002084F8440094F84500FF2884
:104A700004BF002084F84500FFF7FAFEA06B28B1C0
:104A80002046BDE87040FFF707BD00BF04F12400D9
:104A900031462A4600F092F82046BDE87040FFF704
:104AA000FBBC000070B588B340F27C15C2F2000573
:104AB0000446686950B14FF0500080F31188BFF38D
:104AC0006F8FBFF34F8F00BFFEE700BF68690130F3
:104AD0006861AE6928680430FFF728FE2868A419C9
:104AE000446005D3286A29680431FFF75DFE08E0B9
:104AF000E86929680431FFF757FEE86A844238BF45
:104B0000EC6200F031FE002818BF70BD4EF6045074
:104B1000CEF200004FF080510160BFF34F8FBFF322
:104B20006F8F70BD40F27C11C2F200018A6B02608F
:104B3000896941607047000040F27C10C2F20000B9
:104B4000012101637047000070B5D8B140F27C14B8
:104B5000C2F200040D4621681831FFF725FEA66950
:104B600020680430FFF7E2FD681C15D02068AD19FD
:104B7000456019D3206A21680431BDE87040FFF711
:104B800013BE00BF4FF0500080F31188BFF36F8F4A
:104B9000BFF34F8FFEE700BF54F8500B011D2046B6
:104BA000BDE87040FFF732BEE06921680431FFF7CD
:104BB000FBFDE06A854238BFE56270BDF0B581B0AB
:104BC000C0B140F27C14C2F200040D4621681646C2
:104BD0001831FFF71BFEA76920680430FFF7A6FD18
:104BE00096B154F8500B011D204601B0BDE8F040CD
:104BF000FFF70CBE4FF0500080F31188BFF36F8FAA
:104C0000BFF34F8FFEE700BF2068ED19456007D363
:104C1000206A2168043101B0BDE8F040FFF7C4BD4F
:104C2000E06921680431FFF7BFFDE06A854238BFC3
:104C3000E56201B0F0BD000010B588B00020CDE9FC
:104C4000050006A805A904AAFFF782FD059800281B
:104C50003CD0069C002C43D05C21049A0791079914
:104C60005C2947D12063022084F8590007A800215D
:104C7000CDE9001043F64970C0F6000027A10023DB
:104C80000294FFF7A5F92046FFF718F8079840F2BD
:104C90007C14C2F20004A062B0B100F0DDFD411C42
:104CA00032D0012810D14FF0500080F31188BFF3AB
:104CB0006F8FBFF34F8F4FF0FF30E0620120206114
:104CC0000020A06100F094F808B010BD4FF0500033
:104CD00080F31188BFF36F8FBFF34F8FFEE700BFE4
:104CE0004FF0500080F31188BFF36F8FBFF34F8FE9
:104CF000FEE700BF4FF0500080F31188BFF36F8FC5
:104D0000BFF34F8FFEE700BF4FF0500080F31188D4
:104D1000BFF36F8FBFF34F8FFEE700BF49444C4591
:104D20000000000040F27C10C2F200004169013135
:104D30004161704780B540F27C1EC2F2000EDEF881
:104D4000141019B10121CEF8301080BD0021CEF829
:104D50003010DEF8241040F6D83C01EB8103C2F29B
:104D6000000C5CF823208AB101EB81020CEB82037A
:104D700053F8042F5268181D82421A6020D0D06860
:104D8000CEF80000CEF8241080BD00BF0CEB8302EB
:104D9000A2F12803E1B15A6922BB012918D01A688F
:104DA00012BB022914D053F8142CFAB903290FD0DE
:104DB00053F8282C0439002AA3F15003EAD0D3E792
:104DC00052681A60D068CEF80000CEF8241080BD7A
:104DD0004FF0500080F31188BFF36F8FBFF34F8FF8
:104DE000FEE700BF0139BFE70239BDE70339BBE782
:104DF000B0B584B04EF2004CCEF2000C9CF800101E
:104E00000291FF218CF800109CF800108DF807101B
:104E10009DF8071001F0500240F24821C2F2000153
:104E20000A7007224A609DF90720B2F1FF3F5FDC5C
:104E3000032200BFD31C4B609DF8070040008DF893
:104E400007009DF90700B0F1FF3F23DC931C4B6086
:104E50009DF8070040008DF807009DF90700B0F1AC
:104E6000FF3F17DC531C4B609DF8070040008DF896
:104E700007009DF90700B0F1FF3F0BDC4A609DF889
:104E80000700043A40008DF807009DF9070000284C
:104E9000D0D4131D032B2BD14FF4407048600298DF
:104EA0008CF80000DCF8200940F47000CCF82009F0
:104EB000DCF8200940F07040CCF82009FFF756FDDF
:104EC00040F21804C2F2000400252560FFF70CF937
:104ED000FFF730FF039520684FF0500181F31188F0
:104EE000BFF36F8FBFF34F8F013011D0FEE700BFCC
:104EF0004FF0500080F31188BFF36F8FBFF34F8FD7
:104F0000FEE700BF039830B9039820B9039810B9A1
:104F100003980028F6D0002004B0B0BD70B582B070
:104F200070B11C46B3B1F9B9F2B14FF0500080F343
:104F30001188BFF36F8FBFF34F8F00BFFEE700BF35
:104F40004FF0500080F31188BFF36F8FBFF34F8F86
:104F5000FEE700BF4FF0500080F31188BFF36F8F62
:104F6000BFF34F8FFEE700BF51B14AB94FF0500079
:104F700080F31188BFF36F8FBFF34F8FFEE700BF41
:104F800050230193019B502B2CD1069E012384F8C2
:104F90004630002908BF22462260C4E90F01FFF70E
:104FA00043FC2068D4E90F12002502FB01030139FC
:104FB00001FB0201A563C4E90130FF20E16084F830
:104FC000440084F8450004F11000FFF7DDFB04F114
:104FD0002400FFF7D9FBFFF74BFC204684F84C6018
:104FE00002B070BD4FF0500080F31188BFF36F8F97
:104FF000BFF34F8FFEE700002DE9F04F83B0029220
:10500000C0B11D4617460E460446E9B1022D03D134
:10501000E06B012840F0888000F092FA10BB0FB3DB
:105020004FF0500080F31188BFF36F8FBFF34F8FA5
:10503000FEE700BF4FF0500080F31188BFF36F8F81
:10504000BFF34F8FFEE700BF206C0028DED04FF08B
:10505000500080F31188BFF36F8FBFF34F8F00BFF5
:10506000FEE700BFFFF7E0FBA06B022D66D0E16B0F
:10507000884263D304F1100801206F460DF108093E
:105080000DE000BF2046FFF707FA00F06DFBFFF7C9
:10509000CBFBA06BE16B88424FF000004ED302992E
:1050A000002973D0C00702D03846FFF73BFDFFF759
:1050B000DFFBFFF737FEFFF7B7FB94F84400FF284C
:1050C00004BF002084F8440094F84500FF2804BF82
:1050D000002084F84500FFF7CBFB3846494600F036
:1050E00073F9002858D1FFF79FFBD4F838A0D4F803
:1050F0003CB0FFF7BDFBDA45C4D102994046FFF74B
:1051000023FD2046FFF7C8F900F02EFB0028BED192
:105110004EF60450CEF200004FF080510160BFF314
:105120004F8FBFF36F8FB2E74FF0500080F31188BD
:10513000BFF36F8FBFF34F8FFEE700BFA76B226CEB
:10514000D2B19DB3E0683146FBF7C8F8E168206C46
:105150002268091A9142E16003D261684042084422
:10516000E060A81EB0FA80F040093946002F18BF51
:10517000012108403F1A26E02068002520BB606816
:1051800000F072FA656005461EE000BFFFF770FB95
:10519000002003B0BDE8F08F2046FFF77DF900F056
:1051A000E3FA002003B0BDE8F08F00BFA0683146ED
:1051B000FBF794F8216CD4E9012008449042A060E8
:1051C00001D32068A0600025781CA06354F8240F48
:1051D000A0B1204600F08EFA50B14EF60450CEF247
:1051E00000004FF080510160BFF34F8FBFF36F8F0E
:1051F000FFF73EFB012003B0BDE8F08F002DF7D094
:105200004EF60450CEF200004FF080510160BFF323
:105210004F8FBFF36F8FFFF72BFB012003B0BDE86B
:10522000F08F00002DE9F04F83B0029290B1164646
:105230000D460446002947D000F082F9A0B99EB17E
:105240004FF0500080F31188BFF36F8FBFF34F8F83
:10525000FEE700BF4FF0500080F31188BFF36F8F5F
:10526000BFF34F8FFEE700BFFFF7DEFAD4F838A098
:10527000BAF1000F36D0226C52B1E0686368811831
:10528000E160994224BF2168E1602846FBF726F8D7
:10529000AAF10100A06354F8100F70B1204600F08D
:1052A00029FA50B14EF60450CEF200004FF0805172
:1052B0000160BFF34F8FBFF36F8F0124FFF7D8FA60
:1052C000204603B0BDE8F08F206C0028B4D04FF02A
:1052D000500080F31188BFF36F8FBFF34F8F00BF73
:1052E000FEE700BF04F1240801206F464FF00009DB
:1052F0000DF1080B2EE000BFFFF7BAFAFFF712FD21
:10530000FFF792FA94F84400FF2808BF84F844900D
:1053100094F84500FF2808BF84F84590FFF7A8FAE5
:105320003846594600F050F8E0B12046FFF7B4F88F
:1053300000F01AFAFFF778FAA66BFFF799FA002E39
:105340003CD0FFF771FAD4F838A00020BAF1000F72
:105350007FF491AF029949B3C007CDD03846FFF72B
:10536000E1FBC9E7FFF760FAA66BFFF781FA2EB100
:105370002046FFF791F800F0F7F9E2E7029940467E
:10538000FFF7E2FB2046FFF787F800F0EDF9002871
:10539000D7D14EF60450CEF200004FF0805101609C
:1053A000BFF34F8FBFF36F8FCBE700BF0024FFF732
:1053B0005FFA204603B0BDE8F08F00BF002420460E
:1053C00003B0BDE8F08F0000B0B5D8B10D4619B3F9
:1053D0000446FFF729FA40F27C1CC2F2000CDCF80C
:1053E000182029684B1C21D0D4E9000EDCF8383095
:1053F000834221D072451FD30124FFF739FA20469A
:10540000B0BD00BF4FF0500080F31188BFF36F8F25
:10541000BFF34F8FFEE700BF4FF0500080F31188BD
:10542000BFF36F8FBFF34F8FFEE700BF0024FFF77E
:105430001FFA2046B0BD00BFA2EB0E0291420DD96B
:10544000881A2860DCF838002060DCF818006060FA
:105450000024FFF70DFA2046B0BD00BF0020012454
:105460002860FFF705FA2046B0BD00002DE9F043A3
:1054700083B007469000984615468946FFF746F8E0
:10548000F8B106465C20FFF741F8B8B10446DDE903
:105490000A100022266384F85920CDE9001038460E
:1054A00049462A4643460294FEF792FD2046FEF7FF
:1054B00005FC012003B0BDE8F08300BF3046FFF7D4
:1054C000EFF94FF0FF3003B0BDE8F08370B586B060
:1054D0000B9CBCB10C9EFEB15C250495049D5C2D1B
:1054E00024D10A9D3463022486F8594005ACCDE9E5
:1054F00000540296FEF76CFD3046FEF7DFFB059880
:1055000006B070BD4FF0500080F31188BFF36F8F6D
:10551000BFF34F8FFEE700BF4FF0500080F31188BC
:10552000BFF36F8FBFF34F8FFEE700BF4FF0500008
:1055300080F31188BFF36F8FBFF34F8FFEE700003A
:1055400040F27C10C2F20000016900290FBF012067
:105550004069B0FA80F0400918BF40007047000071
:1055600040F27C10C2F20000806970472DE9F043E0
:1055700081B040F27C16C2F20006706920B1706BF7
:1055800000240130706367E0B06910F10109C6F8CA
:10559000189020D3F069006850B14FF0500080F3AC
:1055A0001188BFF36F8FBFF34F8F00BFFEE700BFBF
:1055B000F069316AF1613062B06B0130B063F0695B
:1055C000006828B1F069C068C068406802E000BFA8
:1055D0004FF0FF30F062F06A40F6D8388145C2F2F1
:1055E000000801D200242EE0F0690024006813E0D6
:1055F000F86A716A884288BF706200EB800008EB2D
:1056000080002946FFF702F9F86A3168C96AF26931
:10561000884228BF0124106890B1F069C068C7684B
:105620003D4655F8040F81450CD32846FFF77EF818
:10563000B86A0028DCD007F11800FFF777F8D7E741
:105640004FF0FF30F0623068C06A00EB800058F81D
:105650002000012888BF0124306B002818BF0124D6
:10566000204601B0BDE8F08370B588B140F27C16E9
:10567000C2F2000604463068A0420BD04FF0500042
:1056800080F31188BFF36F8FBFF34F8FFEE700BF2A
:10569000002070BD206D18B3411EE06AE26C2165E8
:1056A00090424FF0000008BF70BDC1B9251D2846CB
:1056B000FFF73CF8E06CC0F13801E062A161716A6B
:1056C000884240F6D83188BF706200EB8000C2F299
:1056D000000101EB80002946FFF798F8012070BD1A
:1056E0004FF0500080F31188BFF36F8FBFF34F8FDF
:1056F000FEE7000070B5C068C5686DB105F118041B
:105700002046FFF713F840F27C16C2F200067069DB
:1057100060B106F164001AE04FF0500080F3118888
:10572000BFF36F8FBFF34F8FFEE700BF2C1D2046E6
:10573000FEF7FCFFE86A716A884240F6D83188BFFC
:10574000706200EB8000C2F2000101EB8000214694
:10575000FFF75CF8E86A3168C96A884292BF0020A6
:105760000120306370BD00002DE9F04140F27C154E
:10577000C2F20005686968B1FFF756F86869013838
:105780006861686980B10024FFF772F82046BDE8BF
:10579000F08100BF4FF0500080F31188BFF36F8F8E
:1057A000BFF34F8FFEE700BFE8680028EBD0686EBC
:1057B00088B340F6D836C2F200064FF0010800BFA9
:1057C000286FC76807F11800FEF7B0FF3C1D2046A0
:1057D000FEF7ACFFF86A696A884288BF686200EB2E
:1057E000800006EB80002146FFF710F8F86A296870
:1057F000C96A884228BFC5F83080686E0028DFD1AA
:10580000E869006820B1E869C068C068406801E0E4
:105810004FF0FF30E8626C6B4CB10126FFF7A6FE3B
:10582000002818BF2E63013CF8D100206863286B64
:105830000028A8D04EF60450CEF200004FF0805160
:105840000160BFF34F8F0124BFF36F8FFFF710F894
:105850002046BDE8F081000070B586B0FEF7E4FF99
:1058600040F2F416C2F20006306808BB06F11404D8
:105870002046FEF789FF06F128052846FEF784FF3B
:1058800040F6E82240F68833C6E902450025C2F218
:105890000002C2F200030A2010210095FFF73EFB30
:1058A000306028B145F68811C0F60001FFF778F89E
:1058B000FEF7DEFF3068D8B10020CDE9040005A86E
:1058C00004A903AAFEF752FFDDE903200221059D8A
:1058D000CDE9001044F24910C0F6000009A10023F0
:1058E0000295FFF7F3FD706010B1012006B070BDA6
:1058F0004FF0500080F31188BFF36F8FBFF34F8FCD
:10590000FEE700BF546D7220537663000000000074
:10591000000000000102030406070809000000005F
:105920000102030401023A535444455252003A53CF
:105930005444494E003A5354444F55540002030412
:1059400005060708090A0B0C0D0E0F1010000000C9
:105950007459000800000000000000000000000072
:10596000000000000002000018000000000000001D
:105970000000000064656661756C745461736B00AF
:1059800069203D3D20256400546D725100000000E7
:10599000B059000800000020200000002801000885
:1059A000D0590008200000206022000044010008B7
:1059B00000000000000000000000000001000000E6
:1059C000100000000024F400AAAAAAAA0000000007
:04000005080000ED02
:00000001FF
